:0200000020C01E
:10000200FECFFDCFFCCF1FC1FACFF9CFF8CFF7CF8C
:10001200FFC0F5CFF4CFF3CFF2CFF1CFF0CFEFCFD8
:10002200EECFEDCFB1B100AB960064000400040046
:100032002600010060012A00010062012C0000007C
:10004200F894EE27ECBBF1E0FBBFEBBFE5BF8DE020
:10005200A2E0BB27ED938A95E9F780E094E0A0E661
:10006200ED930197E9F7EEE2F0E085919591009723
:1000720061F0A591B59105901590BF01F001059031
:100082000D920197E1F7FB01F0CFEFE5EDBFE4E060
:10009200EEBFC0E6D1E00DC1AA931A9310E018306A
:1000A20088F4E981E07811F4AB9801C0AB9A4AD1A7
:1000B200E981EE0FE9834AD1A981EA2BE983AA9863
:1000C2001F5FEDCF188126C070D110E000E008302C
:1000D20038F438D1110F3AD11E2BAA980F5FF7CFFF
:1000E200E12F09911991089537D139D13AD120C020
:1000F20033D1E981E062AE2F0AC02ED1E981E062FC
:10010200AE2FCADFA72DC8DF2AD129D1A881C4DF2B
:1001120026D127D1229608951FD128D1A998E0E1AE
:1001220004C01AD123D1A998EAE0EA93A981E5DFB4
:1001320021960895A898A99AAA981DD120D1A2EE35
:10014200D3DFE0E0EA93AFE1D3DFA2E01CD117D125
:10015200EDE1EA93A4E0CCDFE5E0EA93A2E0C8DFB8
:10016200E6E0EA93A6E0C4DFECE1EA93A1E0C0DFB7
:10017200E2E0EA93A1E00CC0A89A88E795E0019733
:10018200F1F7A898A99A0895A898E0E0EA93AEE159
:10019200AFDF0895E0E0EA93AFE1AADFA89A0895FD
:1001A200EED0A2EEA1DFA52DB7DF0895E8D0A2EE32
:1001B2009BDFA42DB6DF0895A52DAEDFD2D0A9987E
:1001C200A1EE6ADFCED0A998A0EA66DFA82D64DF8F
:1001D200A99AA89A88EE93E00197F1F7A898CFD050
:1001E200A52D9ADFA1EE0DC0A898BBD0A998A1E6D3
:1001F20053DFC1D069DF8E2E9924A99AA89ABFD065
:10020200A2EE72DF0895E8E1E1BDE8E0E1BDFFCFD3
:10021200EA93FA93EFB7EA93ECE9E2BFF50131967C
:100222005F01E8ECF0E0EA15FB0511F4AA24BB2417
:10023200AC14BD0414F4929A01C09298E991EFBFF4
:10024200F991E99118950A921A92FA926A937A931D
:100252008A939A93AA93BA93EA93FA93EFB7EA939B
:10026200E2EBE4BDA2E6B1E090D0E0916201F09150
:100272006301309749F4A0E6B1E087D0E4E6F0E00C
:10028200E0936201F0936301E0916001F0916101FA
:10029200309709F4B8DFE991EFBFF991E991B9918B
:1002A200A9919991899179916991F99019900990FF
:1002B2001895EEE0E4BBEFE3E5BBE4E0E1BBE8E088
:1002C200E2BBE2E0E3BFECE9E2BFE0E0E2BDE7E08F
:1002D200E5BDE2EBE4BDE0E0E3BDE1E0E9BF2ADF3A
:1002E2004AD04ADF48D062DF46D054DF7894A895DE
:1002F200E8E0F0E06F01A4E646D058DF9D9920C007
:1003020073DFE7E0F0E0E815F905D1F4E1E4E9BFD5
:1003120033DF31D045DF2FD037DFE8E0F0E04F01A7
:10032200A8EC31D0E1E1F0E06F01839B08C0E8E086
:10033200F0E06F0141DFA8EC26D08399FECFF2CF27
:10034200DCCFFFCF8DE08A95F1F70895AA9AFADF04
:10035200E0E09C99E1E00895AA93A9980895A88104
:100362009BCEA99A8BE18A95F1F70895E3E0EA938F
:10037200A3E0BEDEF6CF8BE18A95F1F70895E7E0C0
:10038200EA93AEE7B5CEB0E006C0ED91FD913197AC
:10039200FE93EE930895109639F080ED97E0019761
:1003A200F1F7A8951197C9F708951A930A9308953A
:00000001FF
