:040000002FC0FECF40
:10000400FDCFFCCFF5C1FACFF9CFF8CFF7CF43C17D
:10001400F5CFF4CFF3CFF2CFF1CFF0CFEFCFEECFD8
:10002400EDCFB1C064AB000001B40000FEF0EDF907
:10003400F3DBDFF0FFFB010001010001010101011D
:1000440001000A00040026000A00600130000A00D2
:100054006A013A000100780144000000F894EE2798
:10006400ECBBF1E0FBBFEBBFE5BF8DE0A2E0BB273B
:10007400ED938A95E9F780E094E0A0E6ED9301978B
:10008400E9F7E6E4F0E085919591009761F0A59198
:10009400B59105901590BF01F00105900D9201975F
:1000A400E1F7FB01F0CFEFE5EDBFE4E0EEBFC0E622
:1000B400D1E0D6C1AA931A9310E0183088F4E981EC
:1000C400E07811F4AA9801C0AA9A13D2E981EE0F3C
:1000D400E98313D2A981EA2BE983AD981F5FEDCFA1
:1000E400188126C0F2D210E000E0083038F401D2C2
:1000F400110F03D21E2BAD980F5FF7CFE12F09919B
:100104001991089500D202D203D266C0FCD1E981CC
:10011400E062AE2F0AC0F7D1E981E062AE2FCADFF8
:10012400A72DC8DFF3D1F2D1A881C4DFEFD1F0D17C
:1001340022960895E8D1E3E0EA93A3E0E7DFE8D16B
:10014400A998EAE0EA93A981E6DF46C09098A99AC3
:10015400AD98E3D1E6D1A2EED5DFE7D1A2E0B0E0DD
:1001640072D2DFD1EDE1EA93A4E0D0DFE5E0EA93D7
:10017400A2E0CCDFE1E1DDD1E6E0EA93A6E0C6DF70
:10018400ECE1D7D1E2E0D5D10895909A88E795E0E3
:100194000197F1F79098A99A0895C7D1909A089574
:1001A400C0D1A2EEAFDFA42DC5DF08959098B0D1E1
:1001B400A998A1E67FDFB1D195DF8E2E9924A99A63
:1001C400909AAFD1A2EE9EDF0895AA93A881AF3092
:1001D40011F4E1E001C0E0E021960895E1E0F0E0EF
:1001E400ABD131F4ACD13296AFD1E1E0CE2A42C0EA
:1001F400E2E0F0E0A1D131F4A2D13396A5D1E2E05E
:10020400CE2A38C0E3E0F0E097D131F498D13596A6
:100214009BD1E4E0CE2A2EC0E4E0F0E08DD131F4AD
:100224008ED13A9691D1E8E0CE2A24C0E5E0F0E000
:1002340083D129F48ED1329691D1E1E01AC0E6E05F
:10024400F0E07AD129F485D1339688D1E2E011C067
:10025400E7E0F0E071D129F47CD135967FD1E4E078
:1002640008C0E8E0F0E068D129F473D13A9676D179
:10027400E8E0DE2A0895E1E0E0937801E5E004C0D7
:10028400E0E0E0937801E5E4E9BF0895E8E1E1BD49
:10029400E8E0E1BDFFCF0A921A929A93AA93BA9327
:1002A400EA93FA93EFB7EA93E6E0E2BFE1E0EA15F6
:1002B40061F459D15ED157D161D111F4A89801C02C
:1002C400A89A979860D162D188C0E2E0EA1569F4EF
:1002D40064D14FD162D152D111F4A89801C0A89A27
:1002E400979A9698959A52D178C0E3E0EA1569F402
:1002F4005ED13FD15CD142D111F4A89801C0A89A33
:10030400979A969A959842D168C0E4E0EA1569F400
:1003140054D12FD152D132D111F4A89801C0A89A46
:1003240054D1949854D156D158C0E5E0EA1571F4EB
:1003340055D11FD153D122D111F4A89801C0A89A44
:1003440044D1949AC698C79A45D147C0E6E0EA15C5
:1003540071F450D10ED14ED111D111F4A89801C02D
:10036400A89A33D1949AC69AC79834D136C0E7E094
:10037400EA1579F447D1FDD045D100D111F4A898FC
:1003840001C0A89A22D1949A22D19198929A939AD0
:1003940024C0E8E0EA1579F43DD1EBD03BD1EED0AE
:1003A40011F4A89801C0A89A10D1949A10D1919AE6
:1003B4009298939A12C0E9E0EA1579F437D1D9D02A
:1003C40035D1DCD011F4A89801C0A89AFED0949A33
:1003D400FED0919A929A9398AA24A394E991EFBF9C
:1003E400F991E991B991A991999119900990189568
:1003F4000A921A92FA926A937A938A939A93AA9394
:10040400BA93EA93FA93EFB7EA93E2EBE4BD6A9402
:10041400A9E7B1E0ED91FD913196FE93EE93A091A1
:100424007901B0917A01989729F4E0E0E093790199
:10043400E0937A01662019F4BA94E4E66E2EBB20A8
:1004440009F419DFE991EFBFF991E991B991A99103
:100454009991899179916991F990199009901895D8
:10046400EFEFE7BBE0E0E8BBEFEFE1BBE2BBE7E2C5
:10047400E4BBE0E0E5BBE3E0E3BFE6E0E2BFE0E0ED
:10048400E2BDE7E0E5BDE2EBE4BDE0E0E3BDE1E0D1
:10049400E9BF78945BDE41D078DE3FD081DE3DD089
:1004A4007CDE9B9924C082DEE9E0F0E045D011F4C3
:1004B400EDDE06C0EAE0F0E03FD011F4E1DE70DEEC
:1004C400E0917801E03021F489DEA4EFB1E0BBD003
:1004D400AD2D7BDEE03019F0B1D040D0CCDEAC2DB8
:1004E40074DEE03019F0AAD02FD0C5DE59DED9CFA2
:1004F400FFCF8DE08A95F1F70895AD9AFADFE0E039
:100504009C99E1E00895AA93A9980895A881D2CD71
:10051400A99A8BE18A95F1F708958BE18A95F1F711
:100524000895E7E0EA93AEE7F1CDE0E0EA93AFE1C6
:10053400EDCDEA93A1E0EACDE815F9050895E0913F
:100544007601F09177010895E0937601F0937701B5
:100554000895E0917401F09175010895E093740198
:10056400F09375010895AB2DB0E0E4E6F0E08CD093
:100574000895E05AFE4FE081E8BB0895E659FE4F26
:10058400E081E0300895969A959A0895949AC69ACF
:10059400C79A919A929A939A0895AB2DBB27E4E651
:1005A400F0E077D0DF01EAE0F0E06ED00895AB2D03
:1005B400BB27EAE0F0E06DD00895A0917401B091FA
:1005C4007501E4E6F0E060D00895979ADCCFC69A0E
:1005D400C79A0895919A929A939A0895A091740152
:1005E400B0917501E4E6F0E054D0DF01EAE0F0E018
:1005F4004BD00895A0917401B0917501EAE0F0E048
:1006040048D00895A0917601B0917701E4E6F0E036
:100614003BD00895A0917601B0917701E4E6F0E033
:1006240038D0DF01EAE0F0E02FD00895A091760100
:10063400B0917701EAE0F0E02CD00895E1E0E9BF61
:10064400E7EEF3E00895109639F080ED97E0019716
:10065400F1F7A8951197C9F70895F195E195F04040
:1006640008950024112490E1AA0FBB1F001C111C43
:100674000E1A1F0A18F40E0E1F1E01C0A1609A95CF
:1006840099F7FD01D001089512D0EBDF0EF4E5DFF8
:100694000895E894B7FF04C0A095B09511966894A6
:1006A400F7FDDBDFDEDFFD010EF4D7DF0895E8940C
:1006B400F7FF02C0D2DF6894B7FF06C0A095B095DB
:1006C400119600F8039400FA08951A930A93089572
:00000001FF
