:060000002FC0FECFFDCF72
:10000600FCCFF5C1FACFF9CFF8CFF7CF43C1F5CF83
:10001600F4CFF3CFF2CFF1CFF0CFEFCFEECFEDCFDE
:10002600B1C064AB000001B40000FEF0EDF9F3DBF3
:10003600DFF0FFFB010001010001010101010100E8
:100046000A00040026000A00600130000A006A0166
:100056003A000100780144000000F894EE27ECBB5A
:10006600F1E0FBBFEBBFE5BF8DE0A2E0BB27ED9360
:100076008A95E9F780E094E0A0E6ED930197E9F729
:10008600E6E4F0E085919591009761F0A591B59130
:1000960005901590BF01F00105900D920197E1F7CB
:1000A600FB01F0CFEFE5EDBFE4E0EEBFC0E6D1E047
:1000B600D6C1AA931A9310E0183088F4E981E07843
:1000C60011F4AA9801C0AA9A14D2E981EE0FE98325
:1000D60014D2A981EA2BE983AD981F5FEDCF188171
:1000E60026C0F3D210E000E0083038F402D2110F37
:1000F60004D21E2BAD980F5FF7CFE12F099119910E
:10010600089501D203D204D266C0FDD1E981E0622E
:10011600AE2F0AC0F8D1E981E062AE2FCADFA72D63
:10012600C8DFF4D1F3D1A881C4DFF0D1F1D1229692
:100136000895E9D1E3E0EA93A3E0E7DFE9D1A998DE
:10014600EAE0EA93A981E6DF46C09098A99AAD98BD
:10015600E4D1E7D1A2EED5DFE8D1A2E0B0E073D2D8
:10016600E0D1EDE1EA93A4E0D0DFE5E0EA93A2E096
:10017600CCDFE1E1DED1E6E0EA93A6E0C6DFECE122
:10018600D8D1E2E0D6D10895909A88E795E0019714
:10019600F1F79098A99A0895C8D1909A0895C1D177
:1001A600A2EEAFDFA42DC5DF08959098B1D1A9982E
:1001B600A1E67FDFB2D195DF8E2E9924A99A909A77
:1001C600B0D1A2EE9EDF0895AA93A881AF3011F4B4
:1001D600E1E001C0E0E021960895E1E0F0E0ACD175
:1001E60031F4ADD13296B0D1E1E0CE2A42C0E2E0A0
:1001F600F0E0A2D131F4A3D13396A6D1E2E0CE2A23
:1002060038C0E3E0F0E098D131F499D135969CD12D
:10021600E4E0CE2A2EC0E4E0F0E08ED131F48FD1B6
:100226003A9692D1E8E0CE2A24C0E5E0F0E084D107
:1002360029F48FD1329692D1E1E01AC0E6E0F0E0DF
:100246007BD129F486D1339689D1E2E011C0E7E06B
:10025600F0E072D129F47DD1359680D1E4E008C072
:10026600E8E0F0E069D129F474D13A9677D1E8E074
:10027600DE2A0895E1E0E0937801E5E004C0E0E0DD
:10028600E0937801E5E4E9BF0895E8E1E1BDE8E03F
:10029600E1BDFFCF0A921A929A93AA93BA93EA9370
:1002A600FA93EFB7EA93E5E4E2BFE1E0EA1561F419
:1002B6005AD15FD158D162D111F4A89801C0A89A39
:1002C600979861D163D188C0E2E0EA1569F465D1F7
:1002D60050D163D153D111F4A89801C0A89A979A26
:1002E6009698959A53D178C0E3E0EA1569F45FD100
:1002F60040D15DD143D111F4A89801C0A89A979A2C
:10030600969A959843D168C0E4E0EA1569F455D108
:1003160030D153D133D111F4A89801C0A89A55D140
:10032600949855D157D158C0E5E0EA1571F456D1E5
:1003360020D154D123D111F4A89801C0A89A45D14F
:10034600949AC698C79A46D147C0E6E0EA1571F472
:1003560051D10FD14FD112D111F4A89801C0A89A4A
:1003660034D1949AC69AC79835D136C0E7E0EA15D3
:1003760079F448D1FED046D101D111F4A89801C034
:10038600A89A23D1949A23D19198929A939A24C0A9
:10039600E8E0EA1579F43ED1ECD03CD1EFD011F487
:1003A600A89801C0A89A11D1949A11D1919A9298BD
:1003B600939A12C0E9E0EA1579F438D1DAD036D149
:1003C600DDD011F4A89801C0A89AFFD0949AFFD066
:1003D600919A929A9398AA24A394E991EFBFF991DE
:1003E600E991B991A99199911990099018950A9254
:1003F6001A92FA926A937A938A939A93AA93BA93E1
:10040600EA93FA93EFB7EA93E2EBE4BD6A94A9E7BD
:10041600B1E0ED91FD913196FE93EE93A0917901B5
:10042600B0917A01989729F4E0E0E0937901E0939E
:100436007A01662019F4BA94E4E66E2EBB2009F41C
:1004460019DFE991EFBFF991E991B991A9919991D4
:10045600899179916991F990199009901895EFEF22
:10046600E7BBE0E0E8BBEFEFE1BBE2BBE7E2E4BB02
:10047600E0E0E5BBE3E0E3BFE5E4E2BFE0E0E2BDE8
:10048600E7E0E5BDE2EBE4BDE0E0E3BDE1E0E9BFC6
:1004960078945BDE42D078DE40D081DE3ED07CDED2
:1004A6007EDE9B9923C081DEE9E0F0E045D011F4C1
:1004B600ECDE06C0EAE0F0E03FD011F4E0DE6FDEED
:1004C600E0917801E03021F488DEA4EFB1E0BBD002
:1004D600AD2D7ADEE03019F0B1D040D0CBDEAC2DB8
:1004E60073DEE03019F0AAD02FD0C4DE58DED8CFA4
:1004F600FFCF8DE08A95F1F70895AD9AFADFE0E037
:100506009C99E1E00895AA93A9980895A881D1CD70
:10051600A99A8BE18A95F1F708958BE18A95F1F70F
:100526000895E7E0EA93AEE7F0CDE0E0EA93AFE1C5
:10053600ECCDEA93A1E0E9CDE815F9050895E0913F
:100546007601F09177010895E0937601F0937701B3
:100556000895E0917401F09175010895E093740196
:10056600F09375010895AB2DB0E0E4E6F0E08CD091
:100576000895E05AFE4FE081E8BB0895E659FE4F24
:10058600E081E0300895969A959A0895949AC69ACD
:10059600C79A919A929A939A0895AB2DBB27E4E64F
:1005A600F0E077D0DF01EAE0F0E06ED00895AB2D01
:1005B600BB27EAE0F0E06DD00895A0917401B091F8
:1005C6007501E4E6F0E060D00895979ADCCFC69A0C
:1005D600C79A0895919A929A939A0895A091740150
:1005E600B0917501E4E6F0E054D0DF01EAE0F0E016
:1005F6004BD00895A0917401B0917501EAE0F0E046
:1006060048D00895A0917601B0917701E4E6F0E034
:100616003BD00895A0917601B0917701E4E6F0E031
:1006260038D0DF01EAE0F0E02FD00895A0917601FE
:10063600B0917701EAE0F0E02CD00895E1E0E9BF5F
:10064600E7EEF3E00895109639F080ED97E0019714
:10065600F1F7A8951197C9F70895F195E195F0403E
:1006660008950024112490E1AA0FBB1F001C111C41
:100676000E1A1F0A18F40E0E1F1E01C0A1609A95CD
:1006860099F7FD01D001089512D0EBDF0EF4E5DFF6
:100696000895E894B7FF04C0A095B09511966894A4
:1006A600F7FDDBDFDEDFFD010EF4D7DF0895E8940A
:1006B600F7FF02C0D2DF6894B7FF06C0A095B095D9
:1006C600119600F8039400FA08951A930A93089570
:00000001FF
