:0C00000018C0FECFFDCFFCCFFBCFFACF25
:10000C00F9CFF8CFF7CFC8C0F5CFF4CFF3CFF2CFFD
:10001C00F1CFF0CFEFCFEECFEDCFC0B100AB0400FE
:10002C00040026000000F894EE27ECBBF1E0FBBFC7
:10003C00EBBFE5BF8DE0A2E0BB27ED938A95E9F716
:10004C0080E094E0A0E6ED930197E9F7EAE2F0E0B6
:10005C0085919591009761F0A591B59105901590BA
:10006C00BF01F00105900D920197E1F7FB01F0CF74
:10007C00EFE5EDBFE4E0EEBFC0E6D1E0A8C0AA9387
:10008C001A9310E01830C8F4E981E07811F4AB98B9
:10009C0001C0AB9A8DE08A95F1F7E981EE0FE98307
:1000AC00AA9A8DE08A95F1F7E0E09C99E1E0A981AC
:1000BC00EA2BE983AA981F5FE5CF18816BC0C4D0E7
:1000CC00C6D017C0C1D0CAD0C2D064C0BDD0C6D0B3
:1000DC00A72DC8D0C7D0C6D0C5D0C7D05BC0B4D0B0
:1000EC00E3E0EA93A3E0EEDFC6D0E0E1EA93A98176
:1000FC00EDDF21960895A898A99AAA988BE18A9584
:10010C00F1F7BFD0A2EEDBDFE0E0EA93AFE1DADF9C
:10011C00A2E0BBD0B6D0EDE1EA93A4E0D3DFE5E0FA
:10012C00EA93A2E0CFDFE6E0EA93A6E0CBDFECE1D6
:10013C00EA93A1E0C7DFE2E0EA93A1E00CC0A89A41
:10014C0088E795E00197F1F7A898A99A0895A898DF
:10015C00E0E0EA93AEE1B6DF089593D0A2EEAFDF14
:10016C00A52DBDDF0895BA93AA93A52DB8DF83D032
:10017C00A1EE7BD0A998A0EA75D081DFA99AA89AA4
:10018C0088EE93E00197F1F7A8987BD0A52DA7DF17
:10019C00A1EE95DF22960895EA93FA93EFB7EA93CE
:1001AC00ECE9E2BFF50131965F01E8ECF0E0EA150D
:1001BC00FB0511F4AA24BB24AC14BD0414F4929ACC
:1001CC0001C09298E991EFBFF991E9911895EEE091
:1001DC00E4BBEFE3E5BBE4E0E1BBE8E0E2BBE2E07B
:1001EC00E3BFECE9E2BFE1E0E9BF85DF50D0A7DF78
:1001FC004ED0B3DF4CD0ABDF7894A895E1E0F0E0C3
:10020C004F014AD049D0E0E4E9BF839B1BC0A8EE64
:10021C00B3E04CD0E1E4E9BFE1E1F0E06F01A4E62A
:10022C0034D095DF9ADF3DD03CD03BD03AD0A7E01C
:10023C00B0E099DFA4EFB1E039D02ED08399FECF96
:10024C00E0E4E9BFDFCFFFCFAA93A9980895A88176
:10025C0016DFA99A8BE18A95F1F70895E981E0629E
:10026C00AE2F0DCF0CDFA881089509DFA99A8BE181
:10027C008A95F1F70895A99A8BE18A95F1F7A998D7
:10028C000895E7E0EA93AEE71DCFB0E00FC088EC2D
:10029C0090E00197F1F70895EBE0F0E06F01A8EC26
:1002AC00F4CFA7E0B0E05FDFAAE0EFCF109639F013
:1002BC0080ED97E00197F1F7A8951197C9F708958C
:00000001FF
