:040000002FC0FECF40
:10000400FDCFFCCFFBCFEEC1F9CFF8CFF7CFF6CFC2
:10001400F5CF3FC1F3CFF2CFF1CFF0CFEFCFEECF9B
:10002400EDCFB1C064AB000001B400003F061B0F6C
:10003400262D3D073F2F00000001010101000101B1
:1000440001000A00040026000A00600130000A00D2
:100054006A013A000100780144000000F894EE2798
:10006400ECBBF1E0FBBFEBBFE5BF8DE0A2E0BB273B
:10007400ED938A95E9F780E094E0A0E6ED9301978B
:10008400E9F7E6E4F0E085919591009761F0A59198
:10009400B59105901590BF01F00105900D9201975F
:1000A400E1F7FB01F0CFEFE5EDBFE4E0EEBFC0E622
:1000B400D1E0D0C1AA931A9310E0183088F4E981F2
:1000C400E07811F4AA9801C0AA9A0ED2E981EE0F41
:1000D400E9830ED2A981EA2BE983AD981F5FEDCFA6
:1000E400188126C0EAD210E000E0083038F4FCD1D0
:1000F400110FFED11E2BAD980F5FF7CFE12F0991A1
:1001040019910895FBD1FDD1FED164C0F7D1E981E5
:10011400E062AE2F0AC0F2D1E981E062AE2FCADFFD
:10012400A72DC8DFEED1EDD1A881C4DFEAD1EBD190
:1001340022960895E3D1E3E0EA93A3E0E7DFE3D175
:10014400A998EAE0EA93A981E6DF44C09098A99AC5
:10015400AD98DED1E1D1A2EED5DFE2D1A2E0B0E0EC
:100164006AD2DAD1E5E0EA93A2E0D0DFE1E1EA93F2
:10017400A1E0CCDFE6E0EA93A6E0C8DFE2E0EA93A0
:10018400A1E0C4DF0895909A88E795E00197F1F71C
:100194009098A99A0895C4D1909A0895BDD1A2EED9
:1001A400B1DFA42DC7DF08959098ADD1A998A1E639
:1001B40081DFAED197DF8E2E9924A99A909AACD183
:1001C400A2EEA0DF0895AA93A881AF3011F4E1E074
:1001D40001C0E0E021960895E1E0F0E0A5D131F41A
:1001E400A6D13296A9D1E1E0CE2A42C0E2E0F0E005
:1001F4009BD131F49CD133969FD1E2E0CE2A38C012
:10020400E3E0F0E091D131F492D1359695D1E4E078
:10021400CE2A2EC0E4E0F0E087D131F488D13A96BA
:100224008BD1E8E0CE2A24C0E5E0F0E07DD129F4CA
:1002340088D132968BD1E1E01AC0E6E0F0E074D1C7
:1002440029F47FD1339682D1E2E011C0E7E0F0E0F7
:100254006BD129F476D1359679D1E4E008C0E8E091
:10026400F0E062D129F46DD13A9670D1E8E0DE2A4B
:100274000895E1E0E0937801E5E004C0E0E0E09374
:100284007801E5E4E9BF0895E8E1E1BDE8E0E1BD16
:10029400FFCF0A921A929A93AA93BA93EA93FA9383
:1002A400EFB7EA93E6E0E2BFE1E0EA1559F453D18F
:1002B40058D151D15BD111F4A89801C0A89A96984D
:1002C4005AD15CD1E2E0EA1561F45FD14AD15DD143
:1002D4004DD111F4A89801C0A89A969A9598C79AF6
:1002E4004DD1E3E0EA1561F45AD13BD158D13ED166
:1002F40011F4A89801C0A89A969A959AC7983ED1E5
:10030400E4E0EA1561F451D12CD14FD12FD111F48D
:10031400A89801C0A89A51D1929851D153D1E5E03F
:10032400EA1569F453D11DD151D120D111F4A89803
:1003340001C0A89A42D1929A9198979A43D1E6E043
:10034400EA1569F44FD10DD14DD110D111F4A8980B
:1003540001C0A89A32D1929A919A979833D1E7E042
:10036400EA1571F447D1FDD045D100D111F4A89814
:1003740001C0A89A22D1929A22D1C698949A939AAB
:10038400E8E0EA1571F43ED1ECD03CD1EFD011F4A1
:10039400A89801C0A89A11D1929A11D1C69A94989A
:1003A400939AE9E0EA1571F439D1DBD037D1DED084
:1003B40011F4A89801C0A89A00D1929A00D1C69AC3
:1003C400949A9398A394EAE0EA1511F4E1E0AE2E2E
:1003D400E991EFBFF991E991B991A9919991199096
:1003E400099018950A921A92FA926A937A938A93C8
:1003F4009A93AA93BA93EA93FA93EFB7EA93E2EB48
:10040400E4BD6A94A9E7B1E0ED91FD913196FE93C4
:10041400EE93A0917901B0917A01989729F4E0E0E4
:10042400E0937901E0937A01662019F4BA94E4E642
:100434006E2EBB2009F41DDFE991EFBFF991E9911C
:10044400B991A9919991899179916991F9901990AA
:1004540009901895EFEFE7BBE0ECE8BBEFEFE1BBE9
:10046400E2BBE7E2E4BBEFEFE5BBE3E0E3BFE6E0DA
:10047400E2BFE0E0E2BDE7E0E5BDE2EBE4BDE0E0E1
:10048400E3BDE1E0E9BF789461DE42D07CDE40D098
:1004940085DE3ED080DE82DE9B9923C085DEE9E0E6
:1004A400F0E042D011F4F0DE06C0EAE0F0E03CD027
:1004B40011F4E4DE73DEE0917801E03021F48CDEA7
:1004C400A4EFB1E0B8D0AD2D7EDEE03019F0AED0AF
:1004D4003DD0CFDEAC2D77DEE03019F0A7D02CD0A4
:1004E400C8DE5CDED8CFFFCF8DE08A95F1F70895A2
:1004F400AD9AFADFE0E09C99E1E00895AA93A99807
:100504000895A881D7CDA99A8BE18A95F1F708952A
:100514008BE18A95F1F70895E7E0EA93AEE7F6CD2B
:10052400E0E0EA93AFE1F2CDE815F9050895E09132
:100534007601F09177010895E0937601F0937701C5
:100544000895E0917401F09175010895E0937401A8
:10055400F09375010895AB2DB0E0E4E6F0E08CD0A3
:100564000895E05AFE4FE081E8BB0895E659FE4F36
:10057400E081E0300895959AC79A0895929A919AE5
:10058400979AC69A949A939A0895AB2DBB27E4E65A
:10059400F0E077D0DF01EAE0F0E06ED00895AB2D13
:1005A400BB27EAE0F0E06DD00895A0917401B0910A
:1005B4007501E4E6F0E060D00895969ADCCF919A54
:1005C400979A0895C69A949A939A0895A09174015B
:1005D400B0917501E4E6F0E054D0DF01EAE0F0E028
:1005E4004BD00895A0917401B0917501EAE0F0E058
:1005F40048D00895A0917601B0917701E4E6F0E047
:100604003BD00895A0917601B0917701E4E6F0E043
:1006140038D0DF01EAE0F0E02FD00895A091760110
:10062400B0917701EAE0F0E02CD00895E1E0E9BF71
:10063400E7EEF3E00895109639F080ED97E0019726
:10064400F1F7A8951197C9F70895F195E195F04050
:1006540008950024112490E1AA0FBB1F001C111C53
:100664000E1A1F0A18F40E0E1F1E01C0A1609A95DF
:1006740099F7FD01D001089512D0EBDF0EF4E5DF08
:100684000895E894B7FF04C0A095B09511966894B6
:10069400F7FDDBDFDEDFFD010EF4D7DF0895E8941C
:1006A400F7FF02C0D2DF6894B7FF06C0A095B095EB
:1006B400119600F8039400FA08951A930A93089582
:00000001FF
