:0800000018C0FECFFDCFFCCFBC
:10000800FBCFFACFF9CFF8CFF7CFF6CFF5CFF4CFB4
:10001800F3CFF2CFF1CFF0CFEFCFEECFEDCFB1B13D
:1000280000AB0400040026000000F894EE27ECBBA7
:10003800F1E0FBBFEBBFE5BF8DE0A2E0BB27ED938E
:100048008A95E9F780E094E0A0E6ED930197E9F757
:10005800EAE2F0E085919591009761F0A591B5915C
:1000680005901590BF01F00105900D920197E1F7F9
:10007800FB01F0CFEFE5EDBFE4E0EEBFC0E6D1E075
:1000880095C0AA931A9310E01830C8F4E981E07873
:1000980011F4969801C0969A8DE08A95F1F7E98156
:1000A800EE0FE983939A8DE08A95F1F7E0E0849961
:1000B800E1E0A981EA2BE98393981F5FE5CF1881D6
:1000C80016C092D094D095D01FC08ED0E981E0623E
:1000D800AE2F0AC089D0E981E062AE2FD2DFA72D0A
:1000E800D0DF85D084D0A881CCDF81D082D0229681
:1000F80008957AD0E3E0EA93A3E0E7DF7AD097980F
:10010800E0E1EA93A981E6DF219608959298979A0B
:10011800939874D077D0A2EED4DFE0E0EA93AFE111
:10012800D4DFA2E0B0E072D06DD0EDE1EA93A4E0B4
:10013800CCDFE5E0EA93A2E0C8DFE6E0EA93A6E0D8
:10014800C4DFECE1EA93A1E0C0DFE2E0EA93A1E0DA
:100158000CC0929A88E795E00197F1F79298979AE0
:1001680008959298E0E0EA93AEE1AFDF08954AD0AF
:10017800A2EEA7DFA52DBDDF0895A52DBADF39D0E2
:100188009798A1EE7EDF35D09798A0EA7ADFA82D60
:1001980078DF979A929A88EE93E00197F1F7929810
:1001A80031D0A52DA6DFA1EE8CDF0895ECECE1BBE4
:1001B800EFEFE2BBE0E0E7BBEFEFE8BBA7DF1ED065
:1001C800C8DF1CD0D4DF1AD0CCDF7894819904C062
:1001D800EAE0F0E04F01D1DFB79904C0E9E0F0E0D0
:1001E8004F01CBDFF3CFFFCFAA9397980895A8814B
:1001F80048CF979A8BE18A95F1F708958BE18A9514
:10020800F1F70895E7E0EA93AEE75FCF109639F08B
:1002180080ED97E00197F1F7A8951197C9F7089530
:00000001FF
