:020000005DC1E0
:10000200FECFFDCFFCCFFBCFFACFF9CFF8CFF7CFA2
:10001200FAC2F5CFF4CFF3CFF2CFF1CFF0CFEFCFDB
:10002200EECFEDCF05072060000000000000005F6A
:1000320000000007000700147F147F14242A7F2A7F
:10004200122313086462364955225000050300004A
:10005200001C2241000041221C00082A1C2A080818
:10006200083E080800503000000808080808003060
:1000720030000020100804023E5149453E00427FF4
:10008200400042615149462141454B311814127FCB
:100092001027454545393C4A494930017109050354
:1000A2003649494936064949291E003636000000BC
:1000B200563600000008142241141414141441226C
:1000C2001408000201510906324979413E7E11119C
:1000D200117E7F494949363E414141227F414122B9
:1000E2001C7F494949417F090901013E4141513281
:1000F2007F0808087F00417F41002040413F017F87
:10010200081422417F404040407F0204027F7F0466
:1001120008107F3E4141413E7F090909063E415197
:10012200215E7F09192946464949493101017F016A
:10013200013F4040403F1F2040201F7F2018207F6A
:1001420063140814630304780403615149454300AE
:10015200007F4141020408102041417F0000040257
:100162000102044040404040000102040020545477
:1001720054787F48444438384444442038444448FE
:100182007F3854545418087E090102081454543C10
:100192007F0804047800447D40002040443D000074
:1001A2007F10284400417F40007C041804787C08BA
:1001B20004047838444444387C1414140808141491
:1001C200187C7C080404084854545420043F4440DA
:1001D200203C4040207C1C2040201C3C4030403CC5
:1001E20044281028440C5050503C4464544C440061
:1001F2000836410000007F0000004136080002017D
:100202000204027F4141417F000103070F1F3F7F2C
:10021200FF001027E80364000A000100001000013B
:1002220010000100B1B100AB000000006400373BD8
:100232003D3E0900000000000A0005000000000029
:10024200010006000000000002000700000000009C
:1002520003000800000000000400B400626C756531
:1002620000726564006368616D206469656D007485
:100272007520646F6E6700256420000001002D4E1A
:10028200414E00494E4600000A00040026020400C6
:10029200980130020100B0015C02050060015E02BB
:1002A2000400650163020A00690167020800730124
:1002B20071020100B9037E020000F894EE27ECBB44
:1002C200F1E0FBBFEBBFE5BF8DE0A2E0BB27ED9302
:1002D2008A95E9F780E094E0A0E6ED930197E9F7CB
:1002E200EAE8F2E085919591009761F0A591B591C8
:1002F20005901590BF01F00105900D920197E1F76D
:10030200FB01F0CFEFE5EDBFE4E0EEBFC0E6D1E0E8
:10031200A9C1DED810E01830C8F4E981E07811F400
:10032200C39801C0C39A8DE08A95F1F7E981EE0F77
:10033200E983C59A8DE08A95F1F7E0E0B499E1E0AE
:10034200A981EA2BE983C5981F5FE5CF188160C8B0
:10035200C2D8C4D8BAC2BFD8C8D8C0D859C8BBD866
:10036200C4D8A72DC6D8C5D8C4D8C3D8C5D850C8F4
:10037200B2D8E3E0EA93A3E0EEDFC4D8E0E1EA9387
:10038200A981EDDFA2C2C098C19AC598C1D8C6D8CA
:10039200A2EEDEDFC5D8AFE1DEDFC5D83EDAC6D8D1
:1003A200EDE1EA93A4E0D7DFE5E0EA93A2E0D3DF50
:1003B200E6E0EA93A6E0CFDFECE1EA93A1E0CBDF4F
:1003C200E2E0EA93A1E00BC0C09A88E795E00197CA
:1003D200F1F7C098C19A0895C098A2D8AEE1BBDFE8
:1003E2000895A4D8A2EEB4DFA52DC2DF0895C19866
:1003F2008FD8A0E7B0DF94D8AEE1ADDF9AD890D81D
:10040200AEE1A9DFC19A99D808DA089599D8A52D45
:10041200AFDF78D8A1EE70D8C198A0EA6AD879DFA8
:10042200C19AC09A88EE93E00197F1F7C0987ED8FE
:10043200A52D9EDFA1EE8CDFEBC7E8E1E1BDE8E090
:10044200E1BDFFCF882499247ED80CF0C4C080D8A7
:100452009C992EC089D811F570D88BD8DED96DD869
:1004620088D8DBD96AD885D886D8E1E0E093B20192
:100472002ED2E1E0E9BFE5E080D8A0E6B1E00AD5FE
:10048200ECE37BD8A5E6B1E005D5EAE2EA93EAE03F
:10049200EA93EAE2EA93A0E336D509C070D839F4C8
:1004A20071D8BBD96FD8B9D96DD865D8C6DF8FC01E
:1004B2009D9902C06AD809F41EC056D869F469D859
:1004C200ACD967D8AAD965D856D866D8329669D831
:1004D200E2E0F0E06BD80EC052D861F46CD89DD93E
:1004E2006AD89BD968D847D869D832966CD8E2E0E6
:1004F200F0E06ED86CC0B69902C047D809F421C0AA
:1005020033D881F410D835D888D90DD832D885D9C6
:100512000AD82FD830D840D8339643D8E3E0F0E059
:1005220045D80EC02CD861F458D877D956D875D989
:1005320054D821D843D8339646D8E3E0F0E048D8DF
:1005420046C0B29902C021D809F41FC00DD869F47F
:1005520047D863D945D861D943D80DD81DD8359627
:1005620020D8E5E0F0E022D80FC009D869F43BD8E2
:1005720054D939D852D937D8FED720D8359623D86E
:10058200E5E0F0E025D833DF22C0809902C0FDD734
:1005920009F41DC0E9D769F429D83FD927D83DD934
:1005A20025D8E9D7F9D73A96FCD7EAE0F0E0FED7AA
:1005B2000EC0E5D761F41DD830D91BD82ED919D871
:1005C200DAD7FCD73A96FFD7EAE0F0E001D8F40197
:1005D20031964F0139CF089588249924B4D78CF4E9
:1005E200B7D79C9B08C09D9B06C0B69B04C0B29B1C
:1005F20002C0809902C0E0E00895F40131964F01F3
:10060200EDCFE1E008950A921A92FA926A937A93F0
:100612008A939A93AA93BA93EA93FA93EFB7EA93D7
:10062200E2EBE2BFF60131976F010C2C0D2841F489
:10063200A0EBB1E0E1D73197E2D7E4E6F0E06F0159
:10064200E1D7309709F4F9DEE991EFBFF991E99129
:10065200B991A9919991899179916991F99019909A
:10066200099018952897EBE2E7BBEFEFE8BBEFE0C4
:10067200E4BBE0E3E5BBE0E8E1BBE1E8E2BBE5E0E7
:10068200E3BFE2EBE2BFE0E0E9BFE6E2F0E0E883ED
:10069200F983E0E0EA83EB83EC83ED83EE81EC7F88
:1006A200EE83E37EE061EE83EF81E078E263EF8345
:1006B200DE019ED07894A89566DE3BD785DE39D7D9
:1006C20090DE37D789DEE0E158D7A9E6B1E0E2D380
:1006D200E6E1EA93EAE0EA93A3E7B1E0DBD3E0E004
:1006E200E093B201AFDE83DE77DFE03051F08FD7E7
:1006F200E093BB01F093BC018FD7E093BD01F0936F
:10070200BE0143D721F18DD77DD794D7E4E235D707
:1007120097D77DD78FD7ECE097D77ED78BD7E0E4FA
:1007220093D7E091B701F091B80184D7ECE0EA9356
:10073200E8E1EA9385D7E091B901F091BA017AD75D
:10074200E0E4EA93E8E1EA93ACE9B1E0A3D3CACFEB
:10075200FFCF0895BDD6929818E0FBDFE981E078DB
:1007620011F0949A01C09498E981EE0FE983F1DFC8
:10077200959AEFDF9598115081F7929A188148C6A1
:10078200AA939398A881E6DFA0C0AA93939AA8811E
:10079200E1DF9BC09DD6E9815BD71E2FE4E5E19F97
:1007A200F001DF01EA8158D7E093BF01F093C00165
:1007B200E12F18816EC6AA93E981E06851D7E981D9
:1007C200EA93A981E7DFE0644BD722C6AA93E981C5
:1007D200EA93A981F0DFE091BF01F091C00142D715
:1007E200E08116C6AA9341D7A881A083CEDF6DC04F
:1007F200A7D672D88A9A929A8D9A95988C9A8B9A41
:10080200899A91989AD609D8919A36D73097D9F081
:1008120033D7E681E3701E2F2FD7E681E695E69562
:10082200E7700E2F29D7E781EF773E2FAC81BD818C
:1008320023D825D7AC81BD8112961ED825D7AC818D
:10084200BD8127D708C010E003E032E325D717D7D0
:1008520023D71AD721D7E0939601F0939701A1E20B
:100862008FDFE12FE460FCD6E02FE061F9D6E32FC1
:10087200E068F6D6A0E284DFA1E01FD0E1E0E093D9
:100882007B01E0E0E0937C01E1E0E0938101E09311
:100892008201E0938301EFEFE0938401E1E0E093D2
:1008A2008B01ECE8F1E0FBD6EFEFEA93A8E0B0E0D1
:1008B20081D50DD0E1E017D878C0AA93E881E03065
:1008C20011F0ECE001C0E8E0CBD62196089504D8FF
:1008D20030E0E0917C01E03009F03FEF21D6A0E06A
:1008E2006ADF08EF11E0F80101501040309719F06B
:1008F200A32F78DFF8CF14D6A0E0F9D2F4D7E6C55B
:10090200AA93ECD7AC81A43518F4AB81A03310F0D4
:10091200ECD75DC5EC81EA93AC8158DF1E2FEB81E9
:10092200E770A1E08CD70E2FEA81E03011F0102B96
:1009320003C0E02FE0951E23A12F54DFD6D747C571
:10094200C7D5ED81EA93AD8141DF1E2FE981E73002
:1009520011F0E83031F4EB81EA93AA815BD5EB83A5
:1009620008C0E33021F4EB81E095EB8302C0E03074
:1009720021F4EA81E0951E2302C0E23029F4EA81E3
:10098200AB81EA231E2B0EC0E13029F4EA81AB8150
:10099200EA231E2707C0E43029F4EA81E095AB81FF
:1009A200EA2B1E23A12F1EDF188126960895AA93F3
:1009B200239790D7A889A43548F4AF85A03330F4A3
:1009C200AE85A03019F0AD85A03009F483C1EE8563
:1009D200E887A889BB27EE8565D6A535E0E0BE0786
:1009E20020F0A889E4E5EA1BEE872D85AF85BB27B9
:1009F200ED8558D6D19720F0AF85E0E3EA1BED876D
:100A0200A985A63009F051C0EC85E13009F462C134
:100A1200E33039F4E0919601F0919701309709F4AF
:100A220059C10885ED8514D63E2FE22FE77019F4DF
:100A3200AD852A17D1F0A02FBB27E32F37D639D6A1
:100A4200EA0FFB1F39D6269526952695532F5F93DD
:100A52005F5FE22FAF91EA1740F0102FE12F1150A4
:100A6200E03011F02CD6FACFF2CFAE850A17E9F0BA
:100A7200EE851FD6F1D520D6ED85E77009F03F5FF0
:100A820020E02F932F5FE32FAF91AE1770F41E85F6
:100A92001F931F5FE02FAF91AE1710F410D6F8CF5F
:100AA200EE8518D6D9D508D6ECCFEF85E7703E2F64
:100AB200ED85E03009F40EC1EA85FB85FDD510E035
:100AC2000889303009F059C0AD85A83008F450C00B
:100AD200E985E03011F0E33009F402C0E73009F4AF
:100AE20002C0E83009F402C0E93009F402C0EA3079
:100AF20019F4F3D560DE04C0E63011F4EED54ADE17
:100B02001F93EED5AF91AE1760F5A985A63031F4EB
:100B1200EAD5C5D5AAD5A081BED422C0E985E930DF
:100B220011F450E00CC0EA3011F45FEF08C0DBD5DD
:100B3200E3D55E2FE985E73011F0E83019F4E1D50D
:100B42005E2F06C0E33011F4509502C0E03019F474
:100B5200A52F1BDE05C0D8D5EFEFEA93AD85F0DEF9
:100B6200CFCFEF85E85FEF87ED85E850ED87ADC029
:100B72005D8520E0E0E0ED8767C0E32FAD85AE0F35
:100B8200A93020F42D85E0E0ED8703C0E8E0E31B07
:100B92002E2F3A93A22F34D44E2FE985E630B9F4A2
:100BA2009CD5F8DD1F939CD5AF91AE1778F45DD537
:100BB200E081E423AE2FE32F4AD6ACD5E32FA42F56
:100BC20046D6B2D56CD5A52F66D4ECCF22C0E9307B
:100BD20011F450E003C0EA3089F45FEF92D5AE2FF2
:100BE200E32F2DD65E2F1F937BD5AF91AE1728F43E
:100BF2008BD54A93A0E0A4DEF6CF0BC01F9370D52D
:100C0200AF91AE1730F494D5AE2FE32F18D69DD501
:100C1200F5CFED85E03009F45DC0AD85A83028F44C
:100C2200ED85E21B5E2FE0E003C0532FED85E85017
:100C3200ED8710E0EF85E85FEF87E8E0E31B2E2FFA
:100C42000889EA85FB8538D5E52FF0E0E65FFD4FA0
:100C52004491E985E630B9F440D59CDD1F9340D537
:100C6200AF91AE1778F401D5E081E423AE2FE22FE5
:100C7200E6D550D5E22FA42FE2D556D510D5A52F13
:100C82000AD4ECCF22C0E93011F450E003C0EA30BC
:100C920089F45FEF36D5AE2FE22FD9D55E2F1F93A1
:100CA2001FD5AF91AE1728F42FD54A93A0E048DEA6
:100CB200F6CF0BC01F9314D5AF91AE1730F438D5D1
:100CC200AE2FE22FC4D541D5F5CFE885F2D4C4D4F6
:100CD20040D5EECE06D6619608953ED514F0DCD40A
:100CE20097C33FD5A435E0E0BE071CF0E3E5F0E092
:100CF2008FC3E881F9818CC32FD514F0CDD488C37A
:100D020030D5D0971CF0EFE2F0E082C3E881F981A0
:100D12007FC316D4239728D58F01002E012A11F400
:100D2200BBD451C027D50F8225D50E8223D5088684
:100D3200EB85A885EA1710F4AFD445C0F8010F5F20
:100D42001F4F5491A885BB27EE27A50FBE1FEB8529
:100D5200F0E0EA17FB0710F09FD435C0EE8178D49B
:100D62004E2FEE81E77009F04F5FEF81E03081F0A6
:100D7200A985BA85EC93A885EB85EA1BF0E0DF0133
:100D8200EF8194D4DF01E42F91D4E00FF11F1BC057
:100D92009801E52FF0E00E0F1F1FA885AF5FA8870F
:100DA200A150EB85AE1750F4F9012F5F3F4FA4918C
:100DB200B0E0E42F7BD40E0F1F1FEFCFF901E491B7
:100DC200DED4EC93F8018DD52C960895E0E0E09303
:100DD2007D01A0917E01BB27D5D464D4E09182012C
:100DE20061D48ADFE0937E010895AA932197BCD44F
:100DF200309709F44AC0AF81AA3009F444C0EF81A8
:100E0200EA93DE01179685DFAF01309709F43FC000
:100E1200E0918101AE81EA0F3E2FA0917D01BB27B7
:100E22001BD48F010535E0E01E0718F0032F1127B0
:100E3200CDDFE0917D01ADD4E885EA93A3D4EA93B6
:100E4200E1E0EA935A934A93A7E0B1DDE0917D0194
:100E5200AE81EA0F9ED4E0918101EA9393D48DD3BF
:100E62009DD4E0917D01EA93A0917E018BD4EA0F9B
:100E7200EA933A93E091820180D390D4E4E5F0E0E2
:100E8200E017F10711F4A2DF02C000937D0129D51A
:100E92002896089555D31A93EC81EA93AC8127D012
:100EA200A981BA81ED91A983BA831E2FE03019F08E
:100EB200A12F9BDFF5CF18818AC2AA93EA81EA9318
:100EC200EA81EA93E0918401AA81EA2319F0E09190
:100ED2007B0102C0E0917C01AE2F12DDE881EE0FB2
:100EE200E883E03011F4E1E0E883E881D2C2AA931A
:100EF200A981BB27F2DEE0937D01A881BB27FCDE3E
:100F0200E0937E0185C2AA932B97E4D4AC89BB27D8
:100F1200E4DEEC8BAA89BB27E0DEEA8BAB89BB2738
:100F2200EBDEEB8BA989BB27E7DEE98BEA89E0934D
:100F32007D01E989E0937E01E1E0E887E989AB89F7
:100F4200EA1761F51C89AA891A1731F41A93EC89F8
:100F5200EA93A1E0B2DFBAC0AA891A1730F4EA898B
:100F6200E11B0E2F41E050E006C0AA89E12FEA1BE7
:100F72000E2F4FEF5FEF3B89E0E0EE8313D430F4A6
:100F820019D43395AA8599DFEF83F8CFEF81E887EB
:100F9200140FE02F0150E03071F798C0EA89AC8954
:100FA200EA1739F53B89A9893A1730F4E989E31B35
:100FB2002E2FE1E0F0E006C0A989E32FEA1B2E2FD5
:100FC200EFEFFFEFED87FE871C89E0E0EE83EAD3C7
:100FD20038F41A9313953A93AA856FDFEF83F7CF0C
:100FE200EF81E887ED853E0FE22F2150E03061F777
:100FF2006DC0E0E0EE83D6D308F068C01C893B895F
:10100200E1E02E2F0E2FAA89BB27EC89F0E0AE1B60
:10101200BF0BAD01552322F40FEFFA010CD4AF013F
:10102200FA01EE0FFF1FEF87F88BA989BB27EB8927
:10103200F0E0AE1BBF0BAD87BE87AE85AA2332F4AC
:101042002FEFED85FE85F7D3ED87FE87ED85FE85D3
:10105200EE0FFF1FEB87FC87ADD3A1E02EDFE88701
:10106200E0E0E987EA87A9D34A175B07A4F0100FEB
:10107200EB85FC85A5D383D34A175B0724F4320F93
:10108200AF85B889A3D396D3AA8517DFE887EA8903
:10109200E11769F714C0320FA0D392D3ED85FE8514
:1010A2006ED3EA17FB0724F4100FAB85BC858ED3F1
:1010B20081D3AA8502DFE887E989E31761F7EB8923
:1010C200EF5FEB8BE989EF5FE98B95CF0AD46596E9
:1010D200089536D203D484D31296CED3309711F129
:1010E2007FD3D7D28F01309761F00230E0E01E0744
:1010F20080F0F80131978F01AA81BB811496ED939C
:10110200FC936ED3129678D2319679D23197AC8114
:10111200A08366D3B1D3FF2322F062D36DD231967E
:101122006ED205C05DD3EFEFFFEFED93FC93DDD3FD
:101132004EC106D22697CED310E0AC85BD85ACD287
:10114200ED93FC93EA89FB893196EA8BFB8B31970D
:10115200E4912E2FE03009F4FEC0E12FE03031F4AB
:10116200253211F411E001C03ED3F4C0E130A1F404
:10117200253211F438D3EDC012E040E000E02D3208
:1011820011F401E0E7C02B3211F44BE2E3C020324C
:1011920011F440E2DFC002C0E23039F450E013E063
:1011A200203311F40068D6C003C0E33009F0D2C086
:1011B200203310F02A3308F007C0AAE05A9F502DBE
:1011C200E22FE0535E0FC6C0E22FE33639F410D3AC
:1011D20012D30ED3A481AA9312D3BBC0E33739F43E
:1011E20012D313D369D276D2F4D01E2F09C0E037BE
:1011F20059F409D30AD360D26DD2F6D01E2F0860FB
:1012020002600F7730E02EC0E43611F0E93611F4B7
:10121200046002C0E53729F4E4E1F2E04DD215E0C2
:101222000BC0E83511F4086003C0E83709F091C03B
:10123200EEE1F2E041D214E002FF11C0E4D2E5D2C5
:1012420088D2AB85AA232AF4EA85FB85F4D281D21F
:101252004DE2403011F01F5F01C00B7F03C0D3D2BB
:10126200D4D277D200FD10C0151770F407FF08C062
:1012720002FF04C00B7F242F115001C020E301C0E4
:1012820020E2B1D25150F0CF312F01FF14C03030E3
:1012920089F003FF05C0EE81FF8125910DD204C0C4
:1012A20019D22D91AE83BF839ED2503009F0515096
:1012B2003150EDCF45C020E3EE81FF81E1D2E887D6
:1012C200F987EE81FF813296F7D1E885F985F1D170
:1012D200AE17BF0748F02F5FA885B985EA85FB8561
:1012E200EA1BFB0B36D2F1CF2A3328F003FF02C0F0
:1012F200295F01C0295D04FD19C0213320F4A885AE
:10130200B985119709F409C0531710F000FF01C005
:1013120011C020E207FF0AC020E3006102FF06C0FD
:101322000B7F4A936CD2503009F051505CD250304E
:1013320009F051503150A885B985129708F0BBCFFA
:1013420000FF07C0503029F05150E0E2EA9357D233
:10135200F9CF10E0F7CEAC85BD858ED2C2D26496AD
:101362000895FF92F82E2697B7D252D2309719F4E9
:10137200EFEFFFEF1BC0DE01169659D28D0148D266
:101382009BD1E0E0E887E987DE011A9650D274D259
:1013920086D11A930A93EAE6F8E081D1DE011A9621
:1013A200C8DE9F0197D1E0E0EC93F9019CD22A9626
:1013B200FF900895C5D0B981A881109631F0FC81C3
:1013C200EB816A8161931197E9F7EB81FC812596A4
:1013D2000895B6D0A991B991EE27FF276D916623A2
:1013E20011F03196FBCF0895ABD0AA27BB27E99124
:1013F200F9910590002011F01196FBCFFD0108959F
:10140200AA93E881F0E0E65FFD4FA491E98117D24B
:10141200229608955DD0E981E73011F0EA3019F49F
:1014220010917B0109C0E93019F410917C0104C0CC
:10143200E830A1F410918B01E0917C01E03049F099
:10144200103019F0EFEF188124C0EA81E09518817D
:1014520020C0103019F4E0E018811BC0EA81188125
:1014620018C06ED0EA81E13021F4E881F981E4917B
:1014720010C0E23019F475D10CD20BC0E33039F44C
:1014820070D1E0919401F0919501099502C069D162
:10149200EC9123960895AA93EB81E03029F4E88138
:1014A200A981BA81EC9312C0E23029F4E881A981C2
:1014B200BA81FBD10BC0E33049F4E981FA81EFD064
:1014C200AA81E0919601F0919701099524960895D9
:1014D200AA931A930895AA93C1980895A88119D737
:1014E200C19A8BE18A95F1F70895E981E062AE2F06
:1014F20010C70FD7A88108950CD7C19A8BE18A959E
:10150200F1F70895C19A8BE18A95F1F7C198089590
:101512008BE18A95F1F7E7E0EA930895AEE71BC7FE
:10152200E0E0EA930895A2E0B0E00895E7E0EA93EC
:10153200F5CF8BE18A95F1F70895AAE0B0E008951E
:10154200BA93AA930895E4E0F0E08E169F060895F8
:10155200A8E9B1E0A80DB91DEC91E5BBAC9AAD9A32
:10156200C69AC29A909A0895E3E0F0E0E815F90568
:1015720008954CD7E2CF51D13AC7EA93D1CF082C84
:1015820009280895A9E0B0E0F4CFE091B201E0307B
:101592000895A1E0B0E0EDCFE091BB01F091BC0174
:1015A2000895E093B301F093B4010895E093B70175
:1015B200F093B8010895A5E0B0E0DBCFE091BD0162
:1015C200F091BE010895E093B501F093B60108953C
:1015D200E093B901F093BA010895A6E0B0E0C9CF53
:1015E200A3E0B0E0C6CFA7E0B0E0C3CFA4E0B0E094
:1015F200C0CFA8E0B0E0BDCFED91FD910895FE937C
:10160200EE930895E091B001F091B1010895E09157
:10161200B301F091B4010895E091B501F091B601E2
:101622000895ECE9F1E0FA93EA93E9E7F2E0FA933C
:10163200EA93089514D128D184E093DE2896089580
:10164200ACE9B1E027DCEDCFEA93E8E2EA93F8CF28
:10165200E695E695E6950895F0E0EA0FFB1F0895FA
:10166200AE2F8EC8EF53FE4F0895AFEBB1E0C4DF4B
:101672003196C5DF3197F6CFEC81FD810895E09375
:101682007F01F09380010895E0939401F093950116
:1016920008951496F1D00895E0E0F0E00895FA93E9
:1016A200EA930895F0E0AE0FBF1F0895F0E0DCD09A
:1016B2000895AA85BB850895EE83FF830895EC857E
:1016C200EA93EF81F8853196EF83F8873197E7DF68
:1016D200A0E0E1CEAE81BF8108950A93A889089562
:1016E2001F5FEE850895EC85EA93EF81F8853196C8
:1016F200EF83F8873197089566277727DF01CB01BB
:10170200B0CE5A93AA8586CE0A930395E889EA93C6
:101712005A9308955E2FEC85EA93AF81B8858827A6
:1017220099279FDE1E2E0895E095E1215E2BDBCFE7
:101732000A930395E889EA93EE85EA93E985FA85A7
:101742003196E987FA873197D7CFEA934A93AD85E5
:10175200F7C8EA87FB870895F3DEA881B981B6D07E
:101762000895A881B9810895B5D0E0917F01F091E3
:1017720080010895F8010F5F1F4F04900895A98515
:10178200BA850895E0917F01F09180013196E4914C
:101792000895EA93E0917E01EA9308957DDF7FDF69
:1017A200A9E005C9AE81AF5FAE83A150E09183018C
:1017B200AE1708951A933A930895AD85BE8508959C
:1017C200DEDFEA0FFB1FE987FA870895E985FA85CC
:1017D200EA1BFB0BE987FA870895EF85F8890895DC
:1017E200AA81BB8108952A93E8DFF7DF099508955E
:1017F200E889F98908953497E88BF98B0895DDDF3C
:10180200ECDF09950895F4DFF6CFA889B98941CFB5
:10181200DE011C960CD030D00895109639F080ED80
:1018220097E00197F1F7A8951197C9F70895002459
:10183200AF0DB01D0895F195E195F0400895EE23A6
:101842000E2EEA2F19F0EE0F0A94E9F70895EE230F
:101852000E2EEA2F19F0E6950A94E9F708956F2FF4
:10186200660F660B762F0895FA9FF02DEB9FF00D11
:10187200EA9FE02DF10D0895ED91FC9111970895E5
:101882000590F491E02D08957A936A93FA93EA937E
:101892000895E199FECFFF93FFB7F894AEBBBFBBAB
:1018A200E09AEDB3FFBFFF910895E19B02C0A895B6
:1018B200FCCF9FB7F894AEBBBFBBE09A8DB3E817DD
:1018C20019F0EDBBE29AE19A9FBF089500240A162F
:1018D2000B0608955A934A933A932A931A930A93BA
:1018E20008955D814C813B812A8119810881089587
:00000001FF
