:0600000018C0FECFFDCF89
:10000600FCCFFBCFFACFF9CFF8CFF7CFD1C0F5CFE2
:10001600F4CFF3CFF2CFF1CFF0CFEFCFEECFEDCFDE
:10002600C0B100AB0400040026000000F894EE27DF
:10003600ECBBF1E0FBBFEBBFE5BF8DE0A2E0BB2769
:10004600ED938A95E9F780E094E0A0E6ED930197B9
:10005600E9F7EAE2F0E085919591009761F0A591C4
:10006600B59105901590BF01F00105900D9201978D
:10007600E1F7FB01F0CFEFE5EDBFE4E0EEBFC0E650
:10008600D1E0B1C0AA931A9310E01830C8F4E98100
:10009600E07811F4AB9801C0AB9A8DE08A95F1F740
:1000A600E981EE0FE983AA9A8DE08A95F1F7E0E0FF
:1000B6009C99E1E0A981EA2BE983AA981F5FE5CF25
:1000C600188116C0BED0C0D0C1D01FC0BAD0E98139
:1000D600E062AE2F0AC0B5D0E981E062AE2FD2DF72
:1000E600A72DD0DFB1D0B0D0A881CCDFADD0AED0B7
:1000F60022960895A6D0E3E0EA93A3E0E7DFA6D030
:10010600A998E0E1EA93A981E6DF21960895A898E7
:10011600A99AAA988BE18A95F1F79DD0A2EED2DF33
:10012600E0E0EA93AFE1D2DFA2E099D094D0EDE12E
:10013600EA93A4E0CBDFE5E0EA93A2E0C7DFE6E0DE
:10014600EA93A6E0C3DFECE1EA93A1E0BFDFE2E0D9
:10015600EA93A1E00CC0A89A88E795E00197F1F729
:10016600A898A99A0895A898E0E0EA93AEE1AEDFD0
:10017600089571D0A2EEA6DFA52DBCDF0895A52DAA
:10018600B9DF64D0A998A1EE7DDF60D0A998A0EA76
:1001960079DFA82D77DFA99AA89A88EE93E00197D0
:1001A600F1F7A89858D0A52DA5DFA1EE8BDF08950D
:1001B600EA93FA93EFB7EA93ECE9E2BFF5013196D9
:1001C6005F01E8ECF0E0EA15FB0511F4AA24BB2474
:1001D600AC14BD0414F4929A01C09298E991EFBF51
:1001E600F991E9911895EEE0E4BBEFE3E5BBE4E0B5
:1001F600E1BBE8E0E2BBE2E0E3BFECE9E2BFE1E05D
:10020600E9BF85DF2ED0A7DF2CD0B3DF2AD0ABDF46
:100216007894A895E5E0F0E04F01A8EC20D0EBE05B
:10022600F0E06F01839B0AC0A4E619D0E1E1F0E09B
:100236006F01A5DFA8EC13D08399FECF9ADFEFCF2D
:10024600FFCFAA93A9980895A8811CCFA99A8BE1FC
:100256008A95F1F70895E7E0EA93AEE737CFB0E085
:1002660005C088EC90E00197F1F70895109639F0F3
:1002760080ED97E00197F1F7A8951197C9F70895D2
:00000001FF
